{
  "contractName": "ElonDogeLP",
  "abi": [
    {
      "inputs": [
        {
          "internalType": "contract Doge",
          "name": "_dogeToken",
          "type": "address"
        },
        {
          "internalType": "contract Elon",
          "name": "_elonToken",
          "type": "address"
        },
        {
          "internalType": "contract TokenLP1",
          "name": "_elonDogeToken",
          "type": "address"
        }
      ],
      "stateMutability": "nonpayable",
      "type": "constructor"
    },
    {
      "inputs": [],
      "name": "dogeToken",
      "outputs": [
        {
          "internalType": "contract Doge",
          "name": "",
          "type": "address"
        }
      ],
      "stateMutability": "view",
      "type": "function",
      "constant": true
    },
    {
      "inputs": [],
      "name": "elonDogeToken",
      "outputs": [
        {
          "internalType": "contract TokenLP1",
          "name": "",
          "type": "address"
        }
      ],
      "stateMutability": "view",
      "type": "function",
      "constant": true
    },
    {
      "inputs": [],
      "name": "elonToken",
      "outputs": [
        {
          "internalType": "contract Elon",
          "name": "",
          "type": "address"
        }
      ],
      "stateMutability": "view",
      "type": "function",
      "constant": true
    },
    {
      "inputs": [
        {
          "internalType": "address",
          "name": "",
          "type": "address"
        }
      ],
      "name": "hasStaked",
      "outputs": [
        {
          "internalType": "bool",
          "name": "",
          "type": "bool"
        }
      ],
      "stateMutability": "view",
      "type": "function",
      "constant": true
    },
    {
      "inputs": [
        {
          "internalType": "address",
          "name": "",
          "type": "address"
        }
      ],
      "name": "isStaking",
      "outputs": [
        {
          "internalType": "bool",
          "name": "",
          "type": "bool"
        }
      ],
      "stateMutability": "view",
      "type": "function",
      "constant": true
    },
    {
      "inputs": [],
      "name": "owner",
      "outputs": [
        {
          "internalType": "address",
          "name": "",
          "type": "address"
        }
      ],
      "stateMutability": "view",
      "type": "function",
      "constant": true
    },
    {
      "inputs": [
        {
          "internalType": "uint256",
          "name": "",
          "type": "uint256"
        }
      ],
      "name": "stakers",
      "outputs": [
        {
          "internalType": "address",
          "name": "",
          "type": "address"
        }
      ],
      "stateMutability": "view",
      "type": "function",
      "constant": true
    },
    {
      "inputs": [
        {
          "internalType": "address",
          "name": "",
          "type": "address"
        }
      ],
      "name": "stakingBalance",
      "outputs": [
        {
          "internalType": "uint256",
          "name": "",
          "type": "uint256"
        }
      ],
      "stateMutability": "view",
      "type": "function",
      "constant": true
    },
    {
      "inputs": [
        {
          "internalType": "uint256",
          "name": "_amount",
          "type": "uint256"
        }
      ],
      "name": "stakeTokens",
      "outputs": [],
      "stateMutability": "nonpayable",
      "type": "function"
    },
    {
      "inputs": [],
      "name": "unstakeTokens",
      "outputs": [],
      "stateMutability": "nonpayable",
      "type": "function"
    }
  ],
  "bytecode": "0x60806040523480156200001157600080fd5b506040516200121338038062001213833981810160405281019062000037919062000188565b82600160006101000a81548173ffffffffffffffffffffffffffffffffffffffff021916908373ffffffffffffffffffffffffffffffffffffffff16021790555081600260006101000a81548173ffffffffffffffffffffffffffffffffffffffff021916908373ffffffffffffffffffffffffffffffffffffffff16021790555080600360006101000a81548173ffffffffffffffffffffffffffffffffffffffff021916908373ffffffffffffffffffffffffffffffffffffffff160217905550336000806101000a81548173ffffffffffffffffffffffffffffffffffffffff021916908373ffffffffffffffffffffffffffffffffffffffff1602179055505050506200029c565b60008151905062000154816200024e565b92915050565b6000815190506200016b8162000268565b92915050565b600081519050620001828162000282565b92915050565b6000806000606084860312156200019e57600080fd5b6000620001ae8682870162000143565b9350506020620001c1868287016200015a565b9250506040620001d48682870162000171565b9150509250925092565b6000620001eb826200022e565b9050919050565b6000620001ff82620001de565b9050919050565b60006200021382620001de565b9050919050565b60006200022782620001de565b9050919050565b600073ffffffffffffffffffffffffffffffffffffffff82169050919050565b6200025981620001f2565b81146200026557600080fd5b50565b620002738162000206565b81146200027f57600080fd5b50565b6200028d816200021a565b81146200029957600080fd5b50565b610f6780620002ac6000396000f3fe608060405234801561001057600080fd5b506004361061009e5760003560e01c80637547c7a3116100665780637547c7a31461015d5780638da5cb5b14610179578063a5ce413b14610197578063c93c8f34146101a1578063fd5e6dd1146101d15761009e565b806322d31977146100a35780633eabb62c146100c157806345bc78ab146100df5780636e717c751461010f5780636f49712b1461012d575b600080fd5b6100ab610201565b6040516100b89190610ca4565b60405180910390f35b6100c9610227565b6040516100d69190610cbf565b60405180910390f35b6100f960048036038101906100f49190610af3565b61024d565b6040516101069190610d35565b60405180910390f35b610117610265565b6040516101249190610cda565b60405180910390f35b61014760048036038101906101429190610af3565b61028b565b6040516101549190610c89565b60405180910390f35b61017760048036038101906101729190610b45565b6102ab565b005b6101816106f8565b60405161018e9190610c0e565b60405180910390f35b61019f61071c565b005b6101bb60048036038101906101b69190610af3565b610a55565b6040516101c89190610c89565b60405180910390f35b6101eb60048036038101906101e69190610b45565b610a75565b6040516101f89190610c0e565b60405180910390f35b600160009054906101000a900473ffffffffffffffffffffffffffffffffffffffff1681565b600260009054906101000a900473ffffffffffffffffffffffffffffffffffffffff1681565b60056020528060005260406000206000915090505481565b600360009054906101000a900473ffffffffffffffffffffffffffffffffffffffff1681565b60076020528060005260406000206000915054906101000a900460ff1681565b600081116102ee576040517f08c379a00000000000000000000000000000000000000000000000000000000081526004016102e590610d15565b60405180910390fd5b600160009054906101000a900473ffffffffffffffffffffffffffffffffffffffff1673ffffffffffffffffffffffffffffffffffffffff166323b872dd3330846040518463ffffffff1660e01b815260040161034d93929190610c29565b602060405180830381600087803b15801561036757600080fd5b505af115801561037b573d6000803e3d6000fd5b505050506040513d601f19601f8201168201806040525081019061039f9190610b1c565b50600260009054906101000a900473ffffffffffffffffffffffffffffffffffffffff1673ffffffffffffffffffffffffffffffffffffffff166323b872dd3330846040518463ffffffff1660e01b81526004016103ff93929190610c29565b602060405180830381600087803b15801561041957600080fd5b505af115801561042d573d6000803e3d6000fd5b505050506040513d601f19601f820116820180604052508101906104519190610b1c565b50600360009054906101000a900473ffffffffffffffffffffffffffffffffffffffff1673ffffffffffffffffffffffffffffffffffffffff1663a9059cbb33836040518363ffffffff1660e01b81526004016104af929190610c60565b602060405180830381600087803b1580156104c957600080fd5b505af11580156104dd573d6000803e3d6000fd5b505050506040513d601f19601f820116820180604052508101906105019190610b1c565b5080600560003373ffffffffffffffffffffffffffffffffffffffff1673ffffffffffffffffffffffffffffffffffffffff1681526020019081526020016000205461054d9190610d61565b600560003373ffffffffffffffffffffffffffffffffffffffff1673ffffffffffffffffffffffffffffffffffffffff16815260200190815260200160002081905550600660003373ffffffffffffffffffffffffffffffffffffffff1673ffffffffffffffffffffffffffffffffffffffff16815260200190815260200160002060009054906101000a900460ff16610645576004339080600181540180825580915050600190039060005260206000200160009091909190916101000a81548173ffffffffffffffffffffffffffffffffffffffff021916908373ffffffffffffffffffffffffffffffffffffffff1602179055505b6001600760003373ffffffffffffffffffffffffffffffffffffffff1673ffffffffffffffffffffffffffffffffffffffff16815260200190815260200160002060006101000a81548160ff0219169083151502179055506001600660003373ffffffffffffffffffffffffffffffffffffffff1673ffffffffffffffffffffffffffffffffffffffff16815260200190815260200160002060006101000a81548160ff02191690831515021790555050565b60008054906101000a900473ffffffffffffffffffffffffffffffffffffffff1681565b6000600560003373ffffffffffffffffffffffffffffffffffffffff1673ffffffffffffffffffffffffffffffffffffffff168152602001908152602001600020549050600081116107a3576040517f08c379a000000000000000000000000000000000000000000000000000000000815260040161079a90610cf5565b60405180910390fd5b600160009054906101000a900473ffffffffffffffffffffffffffffffffffffffff1673ffffffffffffffffffffffffffffffffffffffff1663a9059cbb33836040518363ffffffff1660e01b8152600401610800929190610c60565b602060405180830381600087803b15801561081a57600080fd5b505af115801561082e573d6000803e3d6000fd5b505050506040513d601f19601f820116820180604052508101906108529190610b1c565b50600260009054906101000a900473ffffffffffffffffffffffffffffffffffffffff1673ffffffffffffffffffffffffffffffffffffffff1663a9059cbb33836040518363ffffffff1660e01b81526004016108b0929190610c60565b602060405180830381600087803b1580156108ca57600080fd5b505af11580156108de573d6000803e3d6000fd5b505050506040513d601f19601f820116820180604052508101906109029190610b1c565b50600360009054906101000a900473ffffffffffffffffffffffffffffffffffffffff1673ffffffffffffffffffffffffffffffffffffffff166323b872dd3330846040518463ffffffff1660e01b815260040161096293929190610c29565b602060405180830381600087803b15801561097c57600080fd5b505af1158015610990573d6000803e3d6000fd5b505050506040513d601f19601f820116820180604052508101906109b49190610b1c565b506000600560003373ffffffffffffffffffffffffffffffffffffffff1673ffffffffffffffffffffffffffffffffffffffff168152602001908152602001600020819055506000600760003373ffffffffffffffffffffffffffffffffffffffff1673ffffffffffffffffffffffffffffffffffffffff16815260200190815260200160002060006101000a81548160ff02191690831515021790555050565b60066020528060005260406000206000915054906101000a900460ff1681565b60048181548110610a8557600080fd5b906000526020600020016000915054906101000a900473ffffffffffffffffffffffffffffffffffffffff1681565b600081359050610ac381610eec565b92915050565b600081519050610ad881610f03565b92915050565b600081359050610aed81610f1a565b92915050565b600060208284031215610b0557600080fd5b6000610b1384828501610ab4565b91505092915050565b600060208284031215610b2e57600080fd5b6000610b3c84828501610ac9565b91505092915050565b600060208284031215610b5757600080fd5b6000610b6584828501610ade565b91505092915050565b610b7781610db7565b82525050565b610b8681610dc9565b82525050565b610b9581610dff565b82525050565b610ba481610e23565b82525050565b610bb381610e47565b82525050565b6000610bc6601b83610d50565b9150610bd182610e9a565b602082019050919050565b6000610be9601283610d50565b9150610bf482610ec3565b602082019050919050565b610c0881610df5565b82525050565b6000602082019050610c236000830184610b6e565b92915050565b6000606082019050610c3e6000830186610b6e565b610c4b6020830185610b6e565b610c586040830184610bff565b949350505050565b6000604082019050610c756000830185610b6e565b610c826020830184610bff565b9392505050565b6000602082019050610c9e6000830184610b7d565b92915050565b6000602082019050610cb96000830184610b8c565b92915050565b6000602082019050610cd46000830184610b9b565b92915050565b6000602082019050610cef6000830184610baa565b92915050565b60006020820190508181036000830152610d0e81610bb9565b9050919050565b60006020820190508181036000830152610d2e81610bdc565b9050919050565b6000602082019050610d4a6000830184610bff565b92915050565b600082825260208201905092915050565b6000610d6c82610df5565b9150610d7783610df5565b9250827fffffffffffffffffffffffffffffffffffffffffffffffffffffffffffffffff03821115610dac57610dab610e6b565b5b828201905092915050565b6000610dc282610dd5565b9050919050565b60008115159050919050565b600073ffffffffffffffffffffffffffffffffffffffff82169050919050565b6000819050919050565b6000610e0a82610e11565b9050919050565b6000610e1c82610dd5565b9050919050565b6000610e2e82610e35565b9050919050565b6000610e4082610dd5565b9050919050565b6000610e5282610e59565b9050919050565b6000610e6482610dd5565b9050919050565b7f4e487b7100000000000000000000000000000000000000000000000000000000600052601160045260246000fd5b7f7374616b696e672062616c616e63652063616e6e6f7420626520300000000000600082015250565b7f616d6f756e742063616e6e6f7420626520300000000000000000000000000000600082015250565b610ef581610db7565b8114610f0057600080fd5b50565b610f0c81610dc9565b8114610f1757600080fd5b50565b610f2381610df5565b8114610f2e57600080fd5b5056fea2646970667358221220b76f7cd52b0fdb85ea48cceb9f2372f99d6f0ff5da87955c6aea0f4501dd640d64736f6c63430008030033",
  "immutableReferences": {},
  "source": "// SPDX-License-Identifier: <SPDX-License>\r\npragma solidity ^0.8.2;\r\n\r\nimport './Doge.sol';\r\nimport './Elon.sol';\r\nimport './TokenLP1.sol';\r\n\r\ncontract ElonDogeLP{\r\n    address public owner;\r\n    Doge public dogeToken;\r\n    Elon public elonToken;\r\n    TokenLP1 public elonDogeToken;\r\n    address[] public stakers;\r\n    mapping(address => uint) public stakingBalance;\r\n    mapping(address => bool) public hasStaked;\r\n    mapping(address => bool) public isStaking;\r\n    constructor (Doge _dogeToken, Elon _elonToken, TokenLP1 _elonDogeToken){\r\n        dogeToken = _dogeToken;\r\n        elonToken = _elonToken;\r\n        elonDogeToken = _elonDogeToken;\r\n        owner = msg.sender;\r\n    }\r\n    \r\n    function stakeTokens(uint _amount) public {\r\n        require(_amount > 0, \"amount cannot be 0\");\r\n        dogeToken.transferFrom(msg.sender, address(this), _amount);\r\n        elonToken.transferFrom(msg.sender, address(this), _amount);\r\n        elonDogeToken.transfer(msg.sender, _amount);\r\n        stakingBalance[msg.sender] = stakingBalance[msg.sender] + _amount;\r\n        if(!hasStaked[msg.sender]) {\r\n            stakers.push(msg.sender);\r\n        }\r\n        isStaking[msg.sender] = true;\r\n        hasStaked[msg.sender] = true;\r\n    }\r\n\r\n    function unstakeTokens() public {\r\n        uint balance = stakingBalance[msg.sender];\r\n        require(balance > 0, \"staking balance cannot be 0\");\r\n        dogeToken.transfer(msg.sender, balance);\r\n        elonToken.transfer(msg.sender, balance);\r\n        elonDogeToken.transferFrom(msg.sender, address(this), balance);\r\n        stakingBalance[msg.sender] = 0;\r\n        isStaking[msg.sender] = false;\r\n    }\r\n}",
  "sourcePath": "C:/Users/Blackie/DeFi-Application/src/Contracts/ElonDogeLP.sol",
  "compiler": {
    "name": "solc",
    "version": "0.8.3+commit.8d00100c.Emscripten.clang"
  },
  "schemaVersion": "3.2.3",
  "updatedAt": "2021-03-30T09:21:36.277Z",
  "networkType": "ethereum",
  "devdoc": {
    "kind": "dev",
    "methods": {},
    "version": 1
  },
  "userdoc": {
    "kind": "user",
    "methods": {},
    "version": 1
  }
}