{
  "contractName": "MintNFT",
  "abi": [
    {
      "inputs": [],
      "stateMutability": "nonpayable",
      "type": "constructor"
    },
    {
      "anonymous": false,
      "inputs": [
        {
          "indexed": true,
          "internalType": "address",
          "name": "owner",
          "type": "address"
        },
        {
          "indexed": true,
          "internalType": "address",
          "name": "approved",
          "type": "address"
        },
        {
          "indexed": true,
          "internalType": "uint256",
          "name": "tokenId",
          "type": "uint256"
        }
      ],
      "name": "Approval",
      "type": "event"
    },
    {
      "anonymous": false,
      "inputs": [
        {
          "indexed": true,
          "internalType": "address",
          "name": "owner",
          "type": "address"
        },
        {
          "indexed": true,
          "internalType": "address",
          "name": "operator",
          "type": "address"
        },
        {
          "indexed": false,
          "internalType": "bool",
          "name": "approved",
          "type": "bool"
        }
      ],
      "name": "ApprovalForAll",
      "type": "event"
    },
    {
      "anonymous": false,
      "inputs": [
        {
          "indexed": true,
          "internalType": "address",
          "name": "from",
          "type": "address"
        },
        {
          "indexed": true,
          "internalType": "address",
          "name": "to",
          "type": "address"
        },
        {
          "indexed": true,
          "internalType": "uint256",
          "name": "tokenId",
          "type": "uint256"
        }
      ],
      "name": "Transfer",
      "type": "event"
    },
    {
      "inputs": [
        {
          "internalType": "uint256",
          "name": "",
          "type": "uint256"
        }
      ],
      "name": "_ownerTokenURIs",
      "outputs": [
        {
          "internalType": "address",
          "name": "",
          "type": "address"
        }
      ],
      "stateMutability": "view",
      "type": "function",
      "constant": true
    },
    {
      "inputs": [
        {
          "internalType": "address",
          "name": "to",
          "type": "address"
        },
        {
          "internalType": "uint256",
          "name": "tokenId",
          "type": "uint256"
        }
      ],
      "name": "approve",
      "outputs": [],
      "stateMutability": "nonpayable",
      "type": "function"
    },
    {
      "inputs": [
        {
          "internalType": "address",
          "name": "owner",
          "type": "address"
        }
      ],
      "name": "balanceOf",
      "outputs": [
        {
          "internalType": "uint256",
          "name": "",
          "type": "uint256"
        }
      ],
      "stateMutability": "view",
      "type": "function",
      "constant": true
    },
    {
      "inputs": [
        {
          "internalType": "uint256",
          "name": "tokenId",
          "type": "uint256"
        }
      ],
      "name": "getApproved",
      "outputs": [
        {
          "internalType": "address",
          "name": "",
          "type": "address"
        }
      ],
      "stateMutability": "view",
      "type": "function",
      "constant": true
    },
    {
      "inputs": [
        {
          "internalType": "address",
          "name": "owner",
          "type": "address"
        },
        {
          "internalType": "address",
          "name": "operator",
          "type": "address"
        }
      ],
      "name": "isApprovedForAll",
      "outputs": [
        {
          "internalType": "bool",
          "name": "",
          "type": "bool"
        }
      ],
      "stateMutability": "view",
      "type": "function",
      "constant": true
    },
    {
      "inputs": [],
      "name": "name",
      "outputs": [
        {
          "internalType": "string",
          "name": "",
          "type": "string"
        }
      ],
      "stateMutability": "view",
      "type": "function",
      "constant": true
    },
    {
      "inputs": [
        {
          "internalType": "uint256",
          "name": "tokenId",
          "type": "uint256"
        }
      ],
      "name": "ownerOf",
      "outputs": [
        {
          "internalType": "address",
          "name": "",
          "type": "address"
        }
      ],
      "stateMutability": "view",
      "type": "function",
      "constant": true
    },
    {
      "inputs": [
        {
          "internalType": "address",
          "name": "from",
          "type": "address"
        },
        {
          "internalType": "address",
          "name": "to",
          "type": "address"
        },
        {
          "internalType": "uint256",
          "name": "tokenId",
          "type": "uint256"
        }
      ],
      "name": "safeTransferFrom",
      "outputs": [],
      "stateMutability": "nonpayable",
      "type": "function"
    },
    {
      "inputs": [
        {
          "internalType": "address",
          "name": "from",
          "type": "address"
        },
        {
          "internalType": "address",
          "name": "to",
          "type": "address"
        },
        {
          "internalType": "uint256",
          "name": "tokenId",
          "type": "uint256"
        },
        {
          "internalType": "bytes",
          "name": "_data",
          "type": "bytes"
        }
      ],
      "name": "safeTransferFrom",
      "outputs": [],
      "stateMutability": "nonpayable",
      "type": "function"
    },
    {
      "inputs": [
        {
          "internalType": "address",
          "name": "operator",
          "type": "address"
        },
        {
          "internalType": "bool",
          "name": "approved",
          "type": "bool"
        }
      ],
      "name": "setApprovalForAll",
      "outputs": [],
      "stateMutability": "nonpayable",
      "type": "function"
    },
    {
      "inputs": [
        {
          "internalType": "bytes4",
          "name": "interfaceId",
          "type": "bytes4"
        }
      ],
      "name": "supportsInterface",
      "outputs": [
        {
          "internalType": "bool",
          "name": "",
          "type": "bool"
        }
      ],
      "stateMutability": "view",
      "type": "function",
      "constant": true
    },
    {
      "inputs": [],
      "name": "symbol",
      "outputs": [
        {
          "internalType": "string",
          "name": "",
          "type": "string"
        }
      ],
      "stateMutability": "view",
      "type": "function",
      "constant": true
    },
    {
      "inputs": [
        {
          "internalType": "uint256",
          "name": "index",
          "type": "uint256"
        }
      ],
      "name": "tokenByIndex",
      "outputs": [
        {
          "internalType": "uint256",
          "name": "",
          "type": "uint256"
        }
      ],
      "stateMutability": "view",
      "type": "function",
      "constant": true
    },
    {
      "inputs": [
        {
          "internalType": "address",
          "name": "owner",
          "type": "address"
        },
        {
          "internalType": "uint256",
          "name": "index",
          "type": "uint256"
        }
      ],
      "name": "tokenOfOwnerByIndex",
      "outputs": [
        {
          "internalType": "uint256",
          "name": "",
          "type": "uint256"
        }
      ],
      "stateMutability": "view",
      "type": "function",
      "constant": true
    },
    {
      "inputs": [],
      "name": "totalSupply",
      "outputs": [
        {
          "internalType": "uint256",
          "name": "",
          "type": "uint256"
        }
      ],
      "stateMutability": "view",
      "type": "function",
      "constant": true
    },
    {
      "inputs": [
        {
          "internalType": "address",
          "name": "from",
          "type": "address"
        },
        {
          "internalType": "address",
          "name": "to",
          "type": "address"
        },
        {
          "internalType": "uint256",
          "name": "tokenId",
          "type": "uint256"
        }
      ],
      "name": "transferFrom",
      "outputs": [],
      "stateMutability": "nonpayable",
      "type": "function"
    },
    {
      "inputs": [
        {
          "internalType": "address",
          "name": "_to",
          "type": "address"
        },
        {
          "internalType": "string",
          "name": "_tokenURI",
          "type": "string"
        }
      ],
      "name": "mint",
      "outputs": [
        {
          "internalType": "bool",
          "name": "",
          "type": "bool"
        }
      ],
      "stateMutability": "nonpayable",
      "type": "function"
    },
    {
      "inputs": [
        {
          "internalType": "uint256",
          "name": "tokenId",
          "type": "uint256"
        }
      ],
      "name": "tokenURI",
      "outputs": [
        {
          "internalType": "string",
          "name": "",
          "type": "string"
        }
      ],
      "stateMutability": "view",
      "type": "function",
      "constant": true
    },
    {
      "inputs": [],
      "name": "returnTokenURIsOfOwner",
      "outputs": [
        {
          "internalType": "string[]",
          "name": "",
          "type": "string[]"
        }
      ],
      "stateMutability": "nonpayable",
      "type": "function"
    },
    {
      "inputs": [],
      "name": "returnTotalSupply",
      "outputs": [
        {
          "internalType": "uint256",
          "name": "",
          "type": "uint256"
        }
      ],
      "stateMutability": "view",
      "type": "function",
      "constant": true
    }
  ],
  "bytecode": "0x60806040523480156200001157600080fd5b506040518060400160405280601081526020017f466972737420436f6c6c656374696f6e000000000000000000000000000000008152506040518060400160405280600381526020017f4652530000000000000000000000000000000000000000000000000000000000815250816000908051906020019062000096929190620000b8565b508060019080519060200190620000af929190620000b8565b505050620001cd565b828054620000c69062000168565b90600052602060002090601f016020900481019282620000ea576000855562000136565b82601f106200010557805160ff191683800117855562000136565b8280016001018555821562000136579182015b828111156200013557825182559160200191906001019062000118565b5b50905062000145919062000149565b5090565b5b80821115620001645760008160009055506001016200014a565b5090565b600060028204905060018216806200018157607f821691505b602082108114156200019857620001976200019e565b5b50919050565b7f4e487b7100000000000000000000000000000000000000000000000000000000600052602260045260246000fd5b61384c80620001dd6000396000f3fe608060405234801561001057600080fd5b506004361061012c5760003560e01c80636352211e116100ad578063c0ab760311610071578063c0ab760314610367578063c87b56dd14610385578063c9cec526146103b5578063d0def521146103d3578063e985e9c5146104035761012c565b80636352211e146102b157806370a08231146102e157806395d89b4114610311578063a22cb4651461032f578063b88d4fde1461034b5761012c565b806318160ddd116100f457806318160ddd146101fb57806323b872dd146102195780632f745c591461023557806342842e0e146102655780634f6ccce7146102815761012c565b806301ffc9a71461013157806306fdde0314610161578063081812fc1461017f578063095ea7b3146101af5780630b850eaa146101cb575b600080fd5b61014b60048036038101906101469190612670565b610433565b6040516101589190612ba0565b60405180910390f35b6101696104ad565b6040516101769190612bbb565b60405180910390f35b610199600480360381019061019491906126c2565b61053f565b6040516101a69190612b17565b60405180910390f35b6101c960048036038101906101c49190612634565b6105c4565b005b6101e560048036038101906101e091906126c2565b6106dc565b6040516101f29190612b17565b60405180910390f35b61020361070f565b6040516102109190612e1d565b60405180910390f35b610233600480360381019061022e91906124da565b61071c565b005b61024f600480360381019061024a9190612634565b61077c565b60405161025c9190612e1d565b60405180910390f35b61027f600480360381019061027a91906124da565b610821565b005b61029b600480360381019061029691906126c2565b610841565b6040516102a89190612e1d565b60405180910390f35b6102cb60048036038101906102c691906126c2565b6108d8565b6040516102d89190612b17565b60405180910390f35b6102fb60048036038101906102f69190612475565b61098a565b6040516103089190612e1d565b60405180910390f35b610319610a42565b6040516103269190612bbb565b60405180910390f35b610349600480360381019061034491906125a4565b610ad4565b005b61036560048036038101906103609190612529565b610c55565b005b61036f610cb7565b60405161037c9190612e1d565b60405180910390f35b61039f600480360381019061039a91906126c2565b610cc6565b6040516103ac9190612bbb565b60405180910390f35b6103bd610e18565b6040516103ca9190612b7e565b60405180910390f35b6103ed60048036038101906103e891906125e0565b610fda565b6040516103fa9190612ba0565b60405180910390f35b61041d6004803603810190610418919061249e565b611019565b60405161042a9190612ba0565b60405180910390f35b60007f780e9d63000000000000000000000000000000000000000000000000000000007bffffffffffffffffffffffffffffffffffffffffffffffffffffffff1916827bffffffffffffffffffffffffffffffffffffffffffffffffffffffff191614806104a657506104a5826110ad565b5b9050919050565b6060600080546104bc906130ca565b80601f01602080910402602001604051908101604052809291908181526020018280546104e8906130ca565b80156105355780601f1061050a57610100808354040283529160200191610535565b820191906000526020600020905b81548152906001019060200180831161051857829003601f168201915b5050505050905090565b600061054a8261118f565b610589576040517f08c379a000000000000000000000000000000000000000000000000000000000815260040161058090612d5d565b60405180910390fd5b6004600083815260200190815260200160002060009054906101000a900473ffffffffffffffffffffffffffffffffffffffff169050919050565b60006105cf826108d8565b90508073ffffffffffffffffffffffffffffffffffffffff168373ffffffffffffffffffffffffffffffffffffffff161415610640576040517f08c379a000000000000000000000000000000000000000000000000000000000815260040161063790612dbd565b60405180910390fd5b8073ffffffffffffffffffffffffffffffffffffffff1661065f6111fb565b73ffffffffffffffffffffffffffffffffffffffff16148061068e575061068d816106886111fb565b611019565b5b6106cd576040517f08c379a00000000000000000000000000000000000000000000000000000000081526004016106c490612c9d565b60405180910390fd5b6106d78383611203565b505050565b600b6020528060005260406000206000915054906101000a900473ffffffffffffffffffffffffffffffffffffffff1681565b6000600880549050905090565b61072d6107276111fb565b826112bc565b61076c576040517f08c379a000000000000000000000000000000000000000000000000000000000815260040161076390612ddd565b60405180910390fd5b61077783838361139a565b505050565b60006107878361098a565b82106107c8576040517f08c379a00000000000000000000000000000000000000000000000000000000081526004016107bf90612bdd565b60405180910390fd5b600660008473ffffffffffffffffffffffffffffffffffffffff1673ffffffffffffffffffffffffffffffffffffffff168152602001908152602001600020600083815260200190815260200160002054905092915050565b61083c83838360405180602001604052806000815250610c55565b505050565b600061084b61070f565b821061088c576040517f08c379a000000000000000000000000000000000000000000000000000000000815260040161088390612dfd565b60405180910390fd5b600882815481106108c6577f4e487b7100000000000000000000000000000000000000000000000000000000600052603260045260246000fd5b90600052602060002001549050919050565b6000806002600084815260200190815260200160002060009054906101000a900473ffffffffffffffffffffffffffffffffffffffff169050600073ffffffffffffffffffffffffffffffffffffffff168173ffffffffffffffffffffffffffffffffffffffff161415610981576040517f08c379a000000000000000000000000000000000000000000000000000000000815260040161097890612cdd565b60405180910390fd5b80915050919050565b60008073ffffffffffffffffffffffffffffffffffffffff168273ffffffffffffffffffffffffffffffffffffffff1614156109fb576040517f08c379a00000000000000000000000000000000000000000000000000000000081526004016109f290612cbd565b60405180910390fd5b600360008373ffffffffffffffffffffffffffffffffffffffff1673ffffffffffffffffffffffffffffffffffffffff168152602001908152602001600020549050919050565b606060018054610a51906130ca565b80601f0160208091040260200160405190810160405280929190818152602001828054610a7d906130ca565b8015610aca5780601f10610a9f57610100808354040283529160200191610aca565b820191906000526020600020905b815481529060010190602001808311610aad57829003601f168201915b5050505050905090565b610adc6111fb565b73ffffffffffffffffffffffffffffffffffffffff168273ffffffffffffffffffffffffffffffffffffffff161415610b4a576040517f08c379a0000000000000000000000000000000000000000000000000000000008152600401610b4190612c5d565b60405180910390fd5b8060056000610b576111fb565b73ffffffffffffffffffffffffffffffffffffffff1673ffffffffffffffffffffffffffffffffffffffff16815260200190815260200160002060008473ffffffffffffffffffffffffffffffffffffffff1673ffffffffffffffffffffffffffffffffffffffff16815260200190815260200160002060006101000a81548160ff0219169083151502179055508173ffffffffffffffffffffffffffffffffffffffff16610c046111fb565b73ffffffffffffffffffffffffffffffffffffffff167f17307eab39ab6107e8899845ad3d59bd9653f200f220920489ca2b5937696c3183604051610c499190612ba0565b60405180910390a35050565b610c66610c606111fb565b836112bc565b610ca5576040517f08c379a0000000000000000000000000000000000000000000000000000000008152600401610c9c90612ddd565b60405180910390fd5b610cb1848484846115f6565b50505050565b6000610cc161070f565b905090565b6060610cd18261118f565b610d10576040517f08c379a0000000000000000000000000000000000000000000000000000000008152600401610d0790612d3d565b60405180910390fd5b6000600a60008481526020019081526020016000208054610d30906130ca565b80601f0160208091040260200160405190810160405280929190818152602001828054610d5c906130ca565b8015610da95780601f10610d7e57610100808354040283529160200191610da9565b820191906000526020600020905b815481529060010190602001808311610d8c57829003601f168201915b505050505090506000610dba611652565b9050600081511415610dd0578192505050610e13565b600082511115610e05578082604051602001610ded929190612af3565b60405160208183030381529060405292505050610e13565b610e0e84611669565b925050505b919050565b606060005b610e2561070f565b8160ff161015610f02573373ffffffffffffffffffffffffffffffffffffffff16600b60008360ff16815260200190815260200160002060009054906101000a900473ffffffffffffffffffffffffffffffffffffffff1673ffffffffffffffffffffffffffffffffffffffff161415610eef57600c600a60008360ff16815260200190815260200160002090806001815401808255809150506001900390600052602060002001600090919091909150908054610ee2906130ca565b610eed92919061220c565b505b8080610efa90613176565b915050610e1d565b50600c805480602002602001604051908101604052809291908181526020016000905b82821015610fd1578382906000526020600020018054610f44906130ca565b80601f0160208091040260200160405190810160405280929190818152602001828054610f70906130ca565b8015610fbd5780601f10610f9257610100808354040283529160200191610fbd565b820191906000526020600020905b815481529060010190602001808311610fa057829003601f168201915b505050505081526020019060010190610f25565b50505050905090565b600080610ff86001610fea61070f565b61171090919063ffffffff16565b90506110048482611726565b61100e81846118f4565b600191505092915050565b6000600560008473ffffffffffffffffffffffffffffffffffffffff1673ffffffffffffffffffffffffffffffffffffffff16815260200190815260200160002060008373ffffffffffffffffffffffffffffffffffffffff1673ffffffffffffffffffffffffffffffffffffffff16815260200190815260200160002060009054906101000a900460ff16905092915050565b60007f80ac58cd000000000000000000000000000000000000000000000000000000007bffffffffffffffffffffffffffffffffffffffffffffffffffffffff1916827bffffffffffffffffffffffffffffffffffffffffffffffffffffffff1916148061117857507f5b5e139f000000000000000000000000000000000000000000000000000000007bffffffffffffffffffffffffffffffffffffffffffffffffffffffff1916827bffffffffffffffffffffffffffffffffffffffffffffffffffffffff1916145b806111885750611187826119ba565b5b9050919050565b60008073ffffffffffffffffffffffffffffffffffffffff166002600084815260200190815260200160002060009054906101000a900473ffffffffffffffffffffffffffffffffffffffff1673ffffffffffffffffffffffffffffffffffffffff1614159050919050565b600033905090565b816004600083815260200190815260200160002060006101000a81548173ffffffffffffffffffffffffffffffffffffffff021916908373ffffffffffffffffffffffffffffffffffffffff160217905550808273ffffffffffffffffffffffffffffffffffffffff16611276836108d8565b73ffffffffffffffffffffffffffffffffffffffff167f8c5be1e5ebec7d5bd14f71427d1e84f3dd0314c0f7b2291e5b200ac8c7c3b92560405160405180910390a45050565b60006112c78261118f565b611306576040517f08c379a00000000000000000000000000000000000000000000000000000000081526004016112fd90612c7d565b60405180910390fd5b6000611311836108d8565b90508073ffffffffffffffffffffffffffffffffffffffff168473ffffffffffffffffffffffffffffffffffffffff16148061138057508373ffffffffffffffffffffffffffffffffffffffff166113688461053f565b73ffffffffffffffffffffffffffffffffffffffff16145b8061139157506113908185611019565b5b91505092915050565b8273ffffffffffffffffffffffffffffffffffffffff166113ba826108d8565b73ffffffffffffffffffffffffffffffffffffffff1614611410576040517f08c379a000000000000000000000000000000000000000000000000000000000815260040161140790612d7d565b60405180910390fd5b600073ffffffffffffffffffffffffffffffffffffffff168273ffffffffffffffffffffffffffffffffffffffff161415611480576040517f08c379a000000000000000000000000000000000000000000000000000000000815260040161147790612c3d565b60405180910390fd5b61148b838383611a24565b611496600082611203565b6001600360008573ffffffffffffffffffffffffffffffffffffffff1673ffffffffffffffffffffffffffffffffffffffff16815260200190815260200160002060008282546114e69190612fd3565b925050819055506001600360008473ffffffffffffffffffffffffffffffffffffffff1673ffffffffffffffffffffffffffffffffffffffff168152602001908152602001600020600082825461153d9190612f4c565b92505081905550816002600083815260200190815260200160002060006101000a81548173ffffffffffffffffffffffffffffffffffffffff021916908373ffffffffffffffffffffffffffffffffffffffff160217905550808273ffffffffffffffffffffffffffffffffffffffff168473ffffffffffffffffffffffffffffffffffffffff167fddf252ad1be2c89b69c2b068fc378daa952ba7f163c4a11628f55a4df523b3ef60405160405180910390a4505050565b61160184848461139a565b61160d84848484611b38565b61164c576040517f08c379a000000000000000000000000000000000000000000000000000000000815260040161164390612bfd565b60405180910390fd5b50505050565b606060405180602001604052806000815250905090565b60606116748261118f565b6116b3576040517f08c379a00000000000000000000000000000000000000000000000000000000081526004016116aa90612d9d565b60405180910390fd5b60006116bd611652565b905060008151116116dd5760405180602001604052806000815250611708565b806116e784611ccf565b6040516020016116f8929190612af3565b6040516020818303038152906040525b915050919050565b6000818361171e9190612f4c565b905092915050565b600073ffffffffffffffffffffffffffffffffffffffff168273ffffffffffffffffffffffffffffffffffffffff161415611796576040517f08c379a000000000000000000000000000000000000000000000000000000000815260040161178d90612d1d565b60405180910390fd5b61179f8161118f565b156117df576040517f08c379a00000000000000000000000000000000000000000000000000000000081526004016117d690612c1d565b60405180910390fd5b6117eb60008383611a24565b6001600360008473ffffffffffffffffffffffffffffffffffffffff1673ffffffffffffffffffffffffffffffffffffffff168152602001908152602001600020600082825461183b9190612f4c565b92505081905550816002600083815260200190815260200160002060006101000a81548173ffffffffffffffffffffffffffffffffffffffff021916908373ffffffffffffffffffffffffffffffffffffffff160217905550808273ffffffffffffffffffffffffffffffffffffffff16600073ffffffffffffffffffffffffffffffffffffffff167fddf252ad1be2c89b69c2b068fc378daa952ba7f163c4a11628f55a4df523b3ef60405160405180910390a45050565b6118fd8261118f565b61193c576040517f08c379a000000000000000000000000000000000000000000000000000000000815260040161193390612cfd565b60405180910390fd5b80600a60008481526020019081526020016000209080519060200190611963929190612299565b5033600b600084815260200190815260200160002060006101000a81548173ffffffffffffffffffffffffffffffffffffffff021916908373ffffffffffffffffffffffffffffffffffffffff1602179055505050565b60007f01ffc9a7000000000000000000000000000000000000000000000000000000007bffffffffffffffffffffffffffffffffffffffffffffffffffffffff1916827bffffffffffffffffffffffffffffffffffffffffffffffffffffffff1916149050919050565b611a2f838383611e7c565b600073ffffffffffffffffffffffffffffffffffffffff168373ffffffffffffffffffffffffffffffffffffffff161415611a7257611a6d81611e81565b611ab1565b8173ffffffffffffffffffffffffffffffffffffffff168373ffffffffffffffffffffffffffffffffffffffff1614611ab057611aaf8382611eca565b5b5b600073ffffffffffffffffffffffffffffffffffffffff168273ffffffffffffffffffffffffffffffffffffffff161415611af457611aef81612037565b611b33565b8273ffffffffffffffffffffffffffffffffffffffff168273ffffffffffffffffffffffffffffffffffffffff1614611b3257611b31828261217a565b5b5b505050565b6000611b598473ffffffffffffffffffffffffffffffffffffffff166121f9565b15611cc2578373ffffffffffffffffffffffffffffffffffffffff1663150b7a02611b826111fb565b8786866040518563ffffffff1660e01b8152600401611ba49493929190612b32565b602060405180830381600087803b158015611bbe57600080fd5b505af1925050508015611bef57506040513d601f19601f82011682018060405250810190611bec9190612699565b60015b611c72573d8060008114611c1f576040519150601f19603f3d011682016040523d82523d6000602084013e611c24565b606091505b50600081511415611c6a576040517f08c379a0000000000000000000000000000000000000000000000000000000008152600401611c6190612bfd565b60405180910390fd5b805181602001fd5b63150b7a0260e01b7bffffffffffffffffffffffffffffffffffffffffffffffffffffffff1916817bffffffffffffffffffffffffffffffffffffffffffffffffffffffff191614915050611cc7565b600190505b949350505050565b60606000821415611d17576040518060400160405280600181526020017f30000000000000000000000000000000000000000000000000000000000000008152509050611e77565b600082905060005b60008214611d49578080611d329061312d565b915050600a82611d429190612fa2565b9150611d1f565b60008167ffffffffffffffff811115611d8b577f4e487b7100000000000000000000000000000000000000000000000000000000600052604160045260246000fd5b6040519080825280601f01601f191660200182016040528015611dbd5781602001600182028036833780820191505090505b5090505b60008514611e7057600182611dd69190612fd3565b9150600a85611de591906131a0565b6030611df19190612f4c565b60f81b818381518110611e2d577f4e487b7100000000000000000000000000000000000000000000000000000000600052603260045260246000fd5b60200101907effffffffffffffffffffffffffffffffffffffffffffffffffffffffffffff1916908160001a905350600a85611e699190612fa2565b9450611dc1565b8093505050505b919050565b505050565b6008805490506009600083815260200190815260200160002081905550600881908060018154018082558091505060019003906000526020600020016000909190919091505550565b60006001611ed78461098a565b611ee19190612fd3565b9050600060076000848152602001908152602001600020549050818114611fc6576000600660008673ffffffffffffffffffffffffffffffffffffffff1673ffffffffffffffffffffffffffffffffffffffff168152602001908152602001600020600084815260200190815260200160002054905080600660008773ffffffffffffffffffffffffffffffffffffffff1673ffffffffffffffffffffffffffffffffffffffff168152602001908152602001600020600084815260200190815260200160002081905550816007600083815260200190815260200160002081905550505b6007600084815260200190815260200160002060009055600660008573ffffffffffffffffffffffffffffffffffffffff1673ffffffffffffffffffffffffffffffffffffffff16815260200190815260200160002060008381526020019081526020016000206000905550505050565b6000600160088054905061204b9190612fd3565b90506000600960008481526020019081526020016000205490506000600883815481106120a1577f4e487b7100000000000000000000000000000000000000000000000000000000600052603260045260246000fd5b9060005260206000200154905080600883815481106120e9577f4e487b7100000000000000000000000000000000000000000000000000000000600052603260045260246000fd5b90600052602060002001819055508160096000838152602001908152602001600020819055506009600085815260200190815260200160002060009055600880548061215e577f4e487b7100000000000000000000000000000000000000000000000000000000600052603160045260246000fd5b6001900381819060005260206000200160009055905550505050565b60006121858361098a565b905081600660008573ffffffffffffffffffffffffffffffffffffffff1673ffffffffffffffffffffffffffffffffffffffff168152602001908152602001600020600083815260200190815260200160002081905550806007600084815260200190815260200160002081905550505050565b600080823b905060008111915050919050565b828054612218906130ca565b90600052602060002090601f01602090048101928261223a5760008555612288565b82601f1061224b5780548555612288565b8280016001018555821561228857600052602060002091601f016020900482015b8281111561228757825482559160010191906001019061226c565b5b509050612295919061231f565b5090565b8280546122a5906130ca565b90600052602060002090601f0160209004810192826122c7576000855561230e565b82601f106122e057805160ff191683800117855561230e565b8280016001018555821561230e579182015b8281111561230d5782518255916020019190600101906122f2565b5b50905061231b919061231f565b5090565b5b80821115612338576000816000905550600101612320565b5090565b600061234f61234a84612e5d565b612e38565b90508281526020810184848401111561236757600080fd5b612372848285613088565b509392505050565b600061238d61238884612e8e565b612e38565b9050828152602081018484840111156123a557600080fd5b6123b0848285613088565b509392505050565b6000813590506123c7816137ba565b92915050565b6000813590506123dc816137d1565b92915050565b6000813590506123f1816137e8565b92915050565b600081519050612406816137e8565b92915050565b600082601f83011261241d57600080fd5b813561242d84826020860161233c565b91505092915050565b600082601f83011261244757600080fd5b813561245784826020860161237a565b91505092915050565b60008135905061246f816137ff565b92915050565b60006020828403121561248757600080fd5b6000612495848285016123b8565b91505092915050565b600080604083850312156124b157600080fd5b60006124bf858286016123b8565b92505060206124d0858286016123b8565b9150509250929050565b6000806000606084860312156124ef57600080fd5b60006124fd868287016123b8565b935050602061250e868287016123b8565b925050604061251f86828701612460565b9150509250925092565b6000806000806080858703121561253f57600080fd5b600061254d878288016123b8565b945050602061255e878288016123b8565b935050604061256f87828801612460565b925050606085013567ffffffffffffffff81111561258c57600080fd5b6125988782880161240c565b91505092959194509250565b600080604083850312156125b757600080fd5b60006125c5858286016123b8565b92505060206125d6858286016123cd565b9150509250929050565b600080604083850312156125f357600080fd5b6000612601858286016123b8565b925050602083013567ffffffffffffffff81111561261e57600080fd5b61262a85828601612436565b9150509250929050565b6000806040838503121561264757600080fd5b6000612655858286016123b8565b925050602061266685828601612460565b9150509250929050565b60006020828403121561268257600080fd5b6000612690848285016123e2565b91505092915050565b6000602082840312156126ab57600080fd5b60006126b9848285016123f7565b91505092915050565b6000602082840312156126d457600080fd5b60006126e284828501612460565b91505092915050565b60006126f783836127cb565b905092915050565b61270881613007565b82525050565b600061271982612ecf565b6127238185612efd565b93508360208202850161273585612ebf565b8060005b85811015612771578484038952815161275285826126eb565b945061275d83612ef0565b925060208a01995050600181019050612739565b50829750879550505050505092915050565b61278c81613019565b82525050565b600061279d82612eda565b6127a78185612f0e565b93506127b7818560208601613097565b6127c08161328d565b840191505092915050565b60006127d682612ee5565b6127e08185612f1f565b93506127f0818560208601613097565b6127f98161328d565b840191505092915050565b600061280f82612ee5565b6128198185612f30565b9350612829818560208601613097565b6128328161328d565b840191505092915050565b600061284882612ee5565b6128528185612f41565b9350612862818560208601613097565b80840191505092915050565b600061287b602b83612f30565b91506128868261329e565b604082019050919050565b600061289e603283612f30565b91506128a9826132ed565b604082019050919050565b60006128c1601c83612f30565b91506128cc8261333c565b602082019050919050565b60006128e4602483612f30565b91506128ef82613365565b604082019050919050565b6000612907601983612f30565b9150612912826133b4565b602082019050919050565b600061292a602c83612f30565b9150612935826133dd565b604082019050919050565b600061294d603883612f30565b91506129588261342c565b604082019050919050565b6000612970602a83612f30565b915061297b8261347b565b604082019050919050565b6000612993602983612f30565b915061299e826134ca565b604082019050919050565b60006129b6602e83612f30565b91506129c182613519565b604082019050919050565b60006129d9602083612f30565b91506129e482613568565b602082019050919050565b60006129fc603183612f30565b9150612a0782613591565b604082019050919050565b6000612a1f602c83612f30565b9150612a2a826135e0565b604082019050919050565b6000612a42602983612f30565b9150612a4d8261362f565b604082019050919050565b6000612a65602f83612f30565b9150612a708261367e565b604082019050919050565b6000612a88602183612f30565b9150612a93826136cd565b604082019050919050565b6000612aab603183612f30565b9150612ab68261371c565b604082019050919050565b6000612ace602c83612f30565b9150612ad98261376b565b604082019050919050565b612aed81613071565b82525050565b6000612aff828561283d565b9150612b0b828461283d565b91508190509392505050565b6000602082019050612b2c60008301846126ff565b92915050565b6000608082019050612b4760008301876126ff565b612b5460208301866126ff565b612b616040830185612ae4565b8181036060830152612b738184612792565b905095945050505050565b60006020820190508181036000830152612b98818461270e565b905092915050565b6000602082019050612bb56000830184612783565b92915050565b60006020820190508181036000830152612bd58184612804565b905092915050565b60006020820190508181036000830152612bf68161286e565b9050919050565b60006020820190508181036000830152612c1681612891565b9050919050565b60006020820190508181036000830152612c36816128b4565b9050919050565b60006020820190508181036000830152612c56816128d7565b9050919050565b60006020820190508181036000830152612c76816128fa565b9050919050565b60006020820190508181036000830152612c968161291d565b9050919050565b60006020820190508181036000830152612cb681612940565b9050919050565b60006020820190508181036000830152612cd681612963565b9050919050565b60006020820190508181036000830152612cf681612986565b9050919050565b60006020820190508181036000830152612d16816129a9565b9050919050565b60006020820190508181036000830152612d36816129cc565b9050919050565b60006020820190508181036000830152612d56816129ef565b9050919050565b60006020820190508181036000830152612d7681612a12565b9050919050565b60006020820190508181036000830152612d9681612a35565b9050919050565b60006020820190508181036000830152612db681612a58565b9050919050565b60006020820190508181036000830152612dd681612a7b565b9050919050565b60006020820190508181036000830152612df681612a9e565b9050919050565b60006020820190508181036000830152612e1681612ac1565b9050919050565b6000602082019050612e326000830184612ae4565b92915050565b6000612e42612e53565b9050612e4e82826130fc565b919050565b6000604051905090565b600067ffffffffffffffff821115612e7857612e7761325e565b5b612e818261328d565b9050602081019050919050565b600067ffffffffffffffff821115612ea957612ea861325e565b5b612eb28261328d565b9050602081019050919050565b6000819050602082019050919050565b600081519050919050565b600081519050919050565b600081519050919050565b6000602082019050919050565b600082825260208201905092915050565b600082825260208201905092915050565b600082825260208201905092915050565b600082825260208201905092915050565b600081905092915050565b6000612f5782613071565b9150612f6283613071565b9250827fffffffffffffffffffffffffffffffffffffffffffffffffffffffffffffffff03821115612f9757612f966131d1565b5b828201905092915050565b6000612fad82613071565b9150612fb883613071565b925082612fc857612fc7613200565b5b828204905092915050565b6000612fde82613071565b9150612fe983613071565b925082821015612ffc57612ffb6131d1565b5b828203905092915050565b600061301282613051565b9050919050565b60008115159050919050565b60007fffffffff0000000000000000000000000000000000000000000000000000000082169050919050565b600073ffffffffffffffffffffffffffffffffffffffff82169050919050565b6000819050919050565b600060ff82169050919050565b82818337600083830152505050565b60005b838110156130b557808201518184015260208101905061309a565b838111156130c4576000848401525b50505050565b600060028204905060018216806130e257607f821691505b602082108114156130f6576130f561322f565b5b50919050565b6131058261328d565b810181811067ffffffffffffffff821117156131245761312361325e565b5b80604052505050565b600061313882613071565b91507fffffffffffffffffffffffffffffffffffffffffffffffffffffffffffffffff82141561316b5761316a6131d1565b5b600182019050919050565b60006131818261307b565b915060ff821415613195576131946131d1565b5b600182019050919050565b60006131ab82613071565b91506131b683613071565b9250826131c6576131c5613200565b5b828206905092915050565b7f4e487b7100000000000000000000000000000000000000000000000000000000600052601160045260246000fd5b7f4e487b7100000000000000000000000000000000000000000000000000000000600052601260045260246000fd5b7f4e487b7100000000000000000000000000000000000000000000000000000000600052602260045260246000fd5b7f4e487b7100000000000000000000000000000000000000000000000000000000600052604160045260246000fd5b6000601f19601f8301169050919050565b7f455243373231456e756d657261626c653a206f776e657220696e646578206f7560008201527f74206f6620626f756e6473000000000000000000000000000000000000000000602082015250565b7f4552433732313a207472616e7366657220746f206e6f6e20455243373231526560008201527f63656976657220696d706c656d656e7465720000000000000000000000000000602082015250565b7f4552433732313a20746f6b656e20616c7265616479206d696e74656400000000600082015250565b7f4552433732313a207472616e7366657220746f20746865207a65726f2061646460008201527f7265737300000000000000000000000000000000000000000000000000000000602082015250565b7f4552433732313a20617070726f766520746f2063616c6c657200000000000000600082015250565b7f4552433732313a206f70657261746f7220717565727920666f72206e6f6e657860008201527f697374656e7420746f6b656e0000000000000000000000000000000000000000602082015250565b7f4552433732313a20617070726f76652063616c6c6572206973206e6f74206f7760008201527f6e6572206e6f7220617070726f76656420666f7220616c6c0000000000000000602082015250565b7f4552433732313a2062616c616e636520717565727920666f7220746865207a6560008201527f726f206164647265737300000000000000000000000000000000000000000000602082015250565b7f4552433732313a206f776e657220717565727920666f72206e6f6e657869737460008201527f656e7420746f6b656e0000000000000000000000000000000000000000000000602082015250565b7f45524337323155524953746f726167653a2055524920736574206f66206e6f6e60008201527f6578697374656e7420746f6b656e000000000000000000000000000000000000602082015250565b7f4552433732313a206d696e7420746f20746865207a65726f2061646472657373600082015250565b7f45524337323155524953746f726167653a2055524920717565727920666f722060008201527f6e6f6e6578697374656e7420746f6b656e000000000000000000000000000000602082015250565b7f4552433732313a20617070726f76656420717565727920666f72206e6f6e657860008201527f697374656e7420746f6b656e0000000000000000000000000000000000000000602082015250565b7f4552433732313a207472616e73666572206f6620746f6b656e2074686174206960008201527f73206e6f74206f776e0000000000000000000000000000000000000000000000602082015250565b7f4552433732314d657461646174613a2055524920717565727920666f72206e6f60008201527f6e6578697374656e7420746f6b656e0000000000000000000000000000000000602082015250565b7f4552433732313a20617070726f76616c20746f2063757272656e74206f776e6560008201527f7200000000000000000000000000000000000000000000000000000000000000602082015250565b7f4552433732313a207472616e736665722063616c6c6572206973206e6f74206f60008201527f776e6572206e6f7220617070726f766564000000000000000000000000000000602082015250565b7f455243373231456e756d657261626c653a20676c6f62616c20696e646578206f60008201527f7574206f6620626f756e64730000000000000000000000000000000000000000602082015250565b6137c381613007565b81146137ce57600080fd5b50565b6137da81613019565b81146137e557600080fd5b50565b6137f181613025565b81146137fc57600080fd5b50565b61380881613071565b811461381357600080fd5b5056fea2646970667358221220312afeef15bb1d5a6c5c38a2bb8468f0a1ae789f8743ec21e531326dbe46306d64736f6c63430008030033",
  "immutableReferences": {},
  "source": "pragma solidity ^0.8.2;\r\n\r\nimport '@openzeppelin/contracts/token/ERC721/extensions/ERC721Enumerable.sol';\r\nimport '@openzeppelin/contracts/token/ERC721/extensions/ERC721URIStorage.sol';\r\nimport \"@openzeppelin/contracts/utils/math/SafeMath.sol\";\r\n\r\ncontract MintNFT is ERC721Enumerable{\r\n    using SafeMath for uint256;\r\n    mapping (uint256 => string) private _tokenURIs;\r\n    mapping (uint256 => address) public _ownerTokenURIs;\r\n    string[] tokenToOwner;\r\n    constructor() ERC721(\"First Collection\",\"FRS\") ERC721Enumerable(){}\r\n\r\n    function mint(address _to, string memory _tokenURI) public returns(bool) {\r\n       uint _tokenId = totalSupply().add(1);\r\n       _mint(_to, _tokenId);\r\n       _setTokenURI(_tokenId, _tokenURI);\r\n       return true;\r\n    }\r\n\r\n    function tokenURI(uint256 tokenId) public view virtual override returns (string memory) {\r\n        require(_exists(tokenId), \"ERC721URIStorage: URI query for nonexistent token\");\r\n\r\n        string memory _tokenURI = _tokenURIs[tokenId];\r\n        string memory base = _baseURI();\r\n\r\n        // If there is no base URI, return the token URI.\r\n        if (bytes(base).length == 0) {\r\n            return _tokenURI;\r\n        }\r\n        // If both are set, concatenate the baseURI and tokenURI (via abi.encodePacked).\r\n        if (bytes(_tokenURI).length > 0) {\r\n            return string(abi.encodePacked(base, _tokenURI));\r\n        }\r\n\r\n        return super.tokenURI(tokenId);\r\n    }\r\n\r\n    function returnTokenURIsOfOwner() public returns(string[] memory){\r\n        for(uint8 i = 0; i < totalSupply(); i++){\r\n            if(_ownerTokenURIs[i] == msg.sender){\r\n                tokenToOwner.push(_tokenURIs[i]); \r\n            }\r\n        }\r\n        return tokenToOwner;\r\n    }\r\n\r\n    function _setTokenURI(uint256 tokenId, string memory _tokenURI) internal virtual {\r\n        require(_exists(tokenId), \"ERC721URIStorage: URI set of nonexistent token\");\r\n        _tokenURIs[tokenId] = _tokenURI;\r\n        _ownerTokenURIs[tokenId] = msg.sender;\r\n    }\r\n\r\n    function returnTotalSupply() public view returns(uint){\r\n        return totalSupply();\r\n    }\r\n\r\n    function _burn(uint256 tokenId) internal virtual override {\r\n        super._burn(tokenId);\r\n\r\n        if (bytes(_tokenURIs[tokenId]).length != 0) {\r\n            delete _tokenURIs[tokenId];\r\n        }\r\n    }\r\n}",
  "sourcePath": "C:/Users/Blackie/DeFi-Application/src/Contracts/MintNFT.sol",
  "compiler": {
    "name": "solc",
    "version": "0.8.3+commit.8d00100c.Emscripten.clang"
  },
  "schemaVersion": "3.2.3",
  "updatedAt": "2021-04-01T15:03:40.033Z",
  "networkType": "ethereum",
  "devdoc": {
    "kind": "dev",
    "methods": {
      "approve(address,uint256)": {
        "details": "See {IERC721-approve}."
      },
      "balanceOf(address)": {
        "details": "See {IERC721-balanceOf}."
      },
      "getApproved(uint256)": {
        "details": "See {IERC721-getApproved}."
      },
      "isApprovedForAll(address,address)": {
        "details": "See {IERC721-isApprovedForAll}."
      },
      "name()": {
        "details": "See {IERC721Metadata-name}."
      },
      "ownerOf(uint256)": {
        "details": "See {IERC721-ownerOf}."
      },
      "safeTransferFrom(address,address,uint256)": {
        "details": "See {IERC721-safeTransferFrom}."
      },
      "safeTransferFrom(address,address,uint256,bytes)": {
        "details": "See {IERC721-safeTransferFrom}."
      },
      "setApprovalForAll(address,bool)": {
        "details": "See {IERC721-setApprovalForAll}."
      },
      "supportsInterface(bytes4)": {
        "details": "See {IERC165-supportsInterface}."
      },
      "symbol()": {
        "details": "See {IERC721Metadata-symbol}."
      },
      "tokenByIndex(uint256)": {
        "details": "See {IERC721Enumerable-tokenByIndex}."
      },
      "tokenOfOwnerByIndex(address,uint256)": {
        "details": "See {IERC721Enumerable-tokenOfOwnerByIndex}."
      },
      "tokenURI(uint256)": {
        "details": "See {IERC721Metadata-tokenURI}."
      },
      "totalSupply()": {
        "details": "See {IERC721Enumerable-totalSupply}."
      },
      "transferFrom(address,address,uint256)": {
        "details": "See {IERC721-transferFrom}."
      }
    },
    "version": 1
  },
  "userdoc": {
    "kind": "user",
    "methods": {},
    "version": 1
  }
}