{
  "contractName": "SnoopDogeLP",
  "abi": [
    {
      "inputs": [
        {
          "internalType": "contract Doge",
          "name": "_dogeToken",
          "type": "address"
        },
        {
          "internalType": "contract Snoop",
          "name": "_snoopToken",
          "type": "address"
        },
        {
          "internalType": "contract TokenLP2",
          "name": "_snoopDogeToken",
          "type": "address"
        }
      ],
      "stateMutability": "nonpayable",
      "type": "constructor"
    },
    {
      "inputs": [],
      "name": "dogeToken",
      "outputs": [
        {
          "internalType": "contract Doge",
          "name": "",
          "type": "address"
        }
      ],
      "stateMutability": "view",
      "type": "function",
      "constant": true
    },
    {
      "inputs": [
        {
          "internalType": "address",
          "name": "",
          "type": "address"
        }
      ],
      "name": "hasStaked",
      "outputs": [
        {
          "internalType": "bool",
          "name": "",
          "type": "bool"
        }
      ],
      "stateMutability": "view",
      "type": "function",
      "constant": true
    },
    {
      "inputs": [
        {
          "internalType": "address",
          "name": "",
          "type": "address"
        }
      ],
      "name": "isStaking",
      "outputs": [
        {
          "internalType": "bool",
          "name": "",
          "type": "bool"
        }
      ],
      "stateMutability": "view",
      "type": "function",
      "constant": true
    },
    {
      "inputs": [],
      "name": "owner",
      "outputs": [
        {
          "internalType": "address",
          "name": "",
          "type": "address"
        }
      ],
      "stateMutability": "view",
      "type": "function",
      "constant": true
    },
    {
      "inputs": [],
      "name": "snoopDogeToken",
      "outputs": [
        {
          "internalType": "contract TokenLP2",
          "name": "",
          "type": "address"
        }
      ],
      "stateMutability": "view",
      "type": "function",
      "constant": true
    },
    {
      "inputs": [],
      "name": "snoopToken",
      "outputs": [
        {
          "internalType": "contract Snoop",
          "name": "",
          "type": "address"
        }
      ],
      "stateMutability": "view",
      "type": "function",
      "constant": true
    },
    {
      "inputs": [
        {
          "internalType": "uint256",
          "name": "",
          "type": "uint256"
        }
      ],
      "name": "stakers",
      "outputs": [
        {
          "internalType": "address",
          "name": "",
          "type": "address"
        }
      ],
      "stateMutability": "view",
      "type": "function",
      "constant": true
    },
    {
      "inputs": [
        {
          "internalType": "address",
          "name": "",
          "type": "address"
        }
      ],
      "name": "stakingBalance",
      "outputs": [
        {
          "internalType": "uint256",
          "name": "",
          "type": "uint256"
        }
      ],
      "stateMutability": "view",
      "type": "function",
      "constant": true
    },
    {
      "inputs": [
        {
          "internalType": "uint256",
          "name": "_amount",
          "type": "uint256"
        }
      ],
      "name": "stakeTokens",
      "outputs": [],
      "stateMutability": "nonpayable",
      "type": "function"
    },
    {
      "inputs": [],
      "name": "unstakeTokens",
      "outputs": [],
      "stateMutability": "nonpayable",
      "type": "function"
    }
  ],
  "bytecode": "0x60806040523480156200001157600080fd5b506040516200121338038062001213833981810160405281019062000037919062000188565b82600160006101000a81548173ffffffffffffffffffffffffffffffffffffffff021916908373ffffffffffffffffffffffffffffffffffffffff16021790555081600260006101000a81548173ffffffffffffffffffffffffffffffffffffffff021916908373ffffffffffffffffffffffffffffffffffffffff16021790555080600360006101000a81548173ffffffffffffffffffffffffffffffffffffffff021916908373ffffffffffffffffffffffffffffffffffffffff160217905550336000806101000a81548173ffffffffffffffffffffffffffffffffffffffff021916908373ffffffffffffffffffffffffffffffffffffffff1602179055505050506200029c565b60008151905062000154816200024e565b92915050565b6000815190506200016b8162000268565b92915050565b600081519050620001828162000282565b92915050565b6000806000606084860312156200019e57600080fd5b6000620001ae8682870162000143565b9350506020620001c1868287016200015a565b9250506040620001d48682870162000171565b9150509250925092565b6000620001eb826200022e565b9050919050565b6000620001ff82620001de565b9050919050565b60006200021382620001de565b9050919050565b60006200022782620001de565b9050919050565b600073ffffffffffffffffffffffffffffffffffffffff82169050919050565b6200025981620001f2565b81146200026557600080fd5b50565b620002738162000206565b81146200027f57600080fd5b50565b6200028d816200021a565b81146200029957600080fd5b50565b610f6780620002ac6000396000f3fe608060405234801561001057600080fd5b506004361061009e5760003560e01c8063a5ce413b11610066578063a5ce413b1461015b578063c93c8f3414610165578063d7d91fe314610195578063f74b1961146101b3578063fd5e6dd1146101d15761009e565b806322d31977146100a357806345bc78ab146100c15780636f49712b146100f15780637547c7a3146101215780638da5cb5b1461013d575b600080fd5b6100ab610201565b6040516100b89190610ca4565b60405180910390f35b6100db60048036038101906100d69190610af3565b610227565b6040516100e89190610d35565b60405180910390f35b61010b60048036038101906101069190610af3565b61023f565b6040516101189190610c89565b60405180910390f35b61013b60048036038101906101369190610b45565b61025f565b005b6101456106ac565b6040516101529190610c0e565b60405180910390f35b6101636106d0565b005b61017f600480360381019061017a9190610af3565b610a09565b60405161018c9190610c89565b60405180910390f35b61019d610a29565b6040516101aa9190610cda565b60405180910390f35b6101bb610a4f565b6040516101c89190610cbf565b60405180910390f35b6101eb60048036038101906101e69190610b45565b610a75565b6040516101f89190610c0e565b60405180910390f35b600160009054906101000a900473ffffffffffffffffffffffffffffffffffffffff1681565b60056020528060005260406000206000915090505481565b60076020528060005260406000206000915054906101000a900460ff1681565b600081116102a2576040517f08c379a000000000000000000000000000000000000000000000000000000000815260040161029990610d15565b60405180910390fd5b600160009054906101000a900473ffffffffffffffffffffffffffffffffffffffff1673ffffffffffffffffffffffffffffffffffffffff166323b872dd3330846040518463ffffffff1660e01b815260040161030193929190610c29565b602060405180830381600087803b15801561031b57600080fd5b505af115801561032f573d6000803e3d6000fd5b505050506040513d601f19601f820116820180604052508101906103539190610b1c565b50600260009054906101000a900473ffffffffffffffffffffffffffffffffffffffff1673ffffffffffffffffffffffffffffffffffffffff166323b872dd3330846040518463ffffffff1660e01b81526004016103b393929190610c29565b602060405180830381600087803b1580156103cd57600080fd5b505af11580156103e1573d6000803e3d6000fd5b505050506040513d601f19601f820116820180604052508101906104059190610b1c565b50600360009054906101000a900473ffffffffffffffffffffffffffffffffffffffff1673ffffffffffffffffffffffffffffffffffffffff1663a9059cbb33836040518363ffffffff1660e01b8152600401610463929190610c60565b602060405180830381600087803b15801561047d57600080fd5b505af1158015610491573d6000803e3d6000fd5b505050506040513d601f19601f820116820180604052508101906104b59190610b1c565b5080600560003373ffffffffffffffffffffffffffffffffffffffff1673ffffffffffffffffffffffffffffffffffffffff168152602001908152602001600020546105019190610d61565b600560003373ffffffffffffffffffffffffffffffffffffffff1673ffffffffffffffffffffffffffffffffffffffff16815260200190815260200160002081905550600660003373ffffffffffffffffffffffffffffffffffffffff1673ffffffffffffffffffffffffffffffffffffffff16815260200190815260200160002060009054906101000a900460ff166105f9576004339080600181540180825580915050600190039060005260206000200160009091909190916101000a81548173ffffffffffffffffffffffffffffffffffffffff021916908373ffffffffffffffffffffffffffffffffffffffff1602179055505b6001600760003373ffffffffffffffffffffffffffffffffffffffff1673ffffffffffffffffffffffffffffffffffffffff16815260200190815260200160002060006101000a81548160ff0219169083151502179055506001600660003373ffffffffffffffffffffffffffffffffffffffff1673ffffffffffffffffffffffffffffffffffffffff16815260200190815260200160002060006101000a81548160ff02191690831515021790555050565b60008054906101000a900473ffffffffffffffffffffffffffffffffffffffff1681565b6000600560003373ffffffffffffffffffffffffffffffffffffffff1673ffffffffffffffffffffffffffffffffffffffff16815260200190815260200160002054905060008111610757576040517f08c379a000000000000000000000000000000000000000000000000000000000815260040161074e90610cf5565b60405180910390fd5b600160009054906101000a900473ffffffffffffffffffffffffffffffffffffffff1673ffffffffffffffffffffffffffffffffffffffff1663a9059cbb33836040518363ffffffff1660e01b81526004016107b4929190610c60565b602060405180830381600087803b1580156107ce57600080fd5b505af11580156107e2573d6000803e3d6000fd5b505050506040513d601f19601f820116820180604052508101906108069190610b1c565b50600260009054906101000a900473ffffffffffffffffffffffffffffffffffffffff1673ffffffffffffffffffffffffffffffffffffffff1663a9059cbb33836040518363ffffffff1660e01b8152600401610864929190610c60565b602060405180830381600087803b15801561087e57600080fd5b505af1158015610892573d6000803e3d6000fd5b505050506040513d601f19601f820116820180604052508101906108b69190610b1c565b50600360009054906101000a900473ffffffffffffffffffffffffffffffffffffffff1673ffffffffffffffffffffffffffffffffffffffff166323b872dd3330846040518463ffffffff1660e01b815260040161091693929190610c29565b602060405180830381600087803b15801561093057600080fd5b505af1158015610944573d6000803e3d6000fd5b505050506040513d601f19601f820116820180604052508101906109689190610b1c565b506000600560003373ffffffffffffffffffffffffffffffffffffffff1673ffffffffffffffffffffffffffffffffffffffff168152602001908152602001600020819055506000600760003373ffffffffffffffffffffffffffffffffffffffff1673ffffffffffffffffffffffffffffffffffffffff16815260200190815260200160002060006101000a81548160ff02191690831515021790555050565b60066020528060005260406000206000915054906101000a900460ff1681565b600360009054906101000a900473ffffffffffffffffffffffffffffffffffffffff1681565b600260009054906101000a900473ffffffffffffffffffffffffffffffffffffffff1681565b60048181548110610a8557600080fd5b906000526020600020016000915054906101000a900473ffffffffffffffffffffffffffffffffffffffff1681565b600081359050610ac381610eec565b92915050565b600081519050610ad881610f03565b92915050565b600081359050610aed81610f1a565b92915050565b600060208284031215610b0557600080fd5b6000610b1384828501610ab4565b91505092915050565b600060208284031215610b2e57600080fd5b6000610b3c84828501610ac9565b91505092915050565b600060208284031215610b5757600080fd5b6000610b6584828501610ade565b91505092915050565b610b7781610db7565b82525050565b610b8681610dc9565b82525050565b610b9581610dff565b82525050565b610ba481610e23565b82525050565b610bb381610e47565b82525050565b6000610bc6601b83610d50565b9150610bd182610e9a565b602082019050919050565b6000610be9601283610d50565b9150610bf482610ec3565b602082019050919050565b610c0881610df5565b82525050565b6000602082019050610c236000830184610b6e565b92915050565b6000606082019050610c3e6000830186610b6e565b610c4b6020830185610b6e565b610c586040830184610bff565b949350505050565b6000604082019050610c756000830185610b6e565b610c826020830184610bff565b9392505050565b6000602082019050610c9e6000830184610b7d565b92915050565b6000602082019050610cb96000830184610b8c565b92915050565b6000602082019050610cd46000830184610b9b565b92915050565b6000602082019050610cef6000830184610baa565b92915050565b60006020820190508181036000830152610d0e81610bb9565b9050919050565b60006020820190508181036000830152610d2e81610bdc565b9050919050565b6000602082019050610d4a6000830184610bff565b92915050565b600082825260208201905092915050565b6000610d6c82610df5565b9150610d7783610df5565b9250827fffffffffffffffffffffffffffffffffffffffffffffffffffffffffffffffff03821115610dac57610dab610e6b565b5b828201905092915050565b6000610dc282610dd5565b9050919050565b60008115159050919050565b600073ffffffffffffffffffffffffffffffffffffffff82169050919050565b6000819050919050565b6000610e0a82610e11565b9050919050565b6000610e1c82610dd5565b9050919050565b6000610e2e82610e35565b9050919050565b6000610e4082610dd5565b9050919050565b6000610e5282610e59565b9050919050565b6000610e6482610dd5565b9050919050565b7f4e487b7100000000000000000000000000000000000000000000000000000000600052601160045260246000fd5b7f7374616b696e672062616c616e63652063616e6e6f7420626520300000000000600082015250565b7f616d6f756e742063616e6e6f7420626520300000000000000000000000000000600082015250565b610ef581610db7565b8114610f0057600080fd5b50565b610f0c81610dc9565b8114610f1757600080fd5b50565b610f2381610df5565b8114610f2e57600080fd5b5056fea2646970667358221220ef885f817c8cda05609b18bef3159ca5818cdd36b7b280ff59e92b613f542ed264736f6c63430008030033",
  "immutableReferences": {},
  "source": "// SPDX-License-Identifier: <SPDX-License>\r\npragma solidity ^0.8.2;\r\n\r\nimport './Doge.sol';\r\nimport './Snoop.sol';\r\nimport './TokenLP2.sol';\r\n\r\ncontract SnoopDogeLP{\r\n    address public owner;\r\n    Doge public dogeToken;\r\n    Snoop public snoopToken;\r\n    TokenLP2 public snoopDogeToken;\r\n    address[] public stakers;\r\n    mapping(address => uint) public stakingBalance;\r\n    mapping(address => bool) public hasStaked;\r\n    mapping(address => bool) public isStaking;\r\n    constructor (Doge _dogeToken, Snoop _snoopToken, TokenLP2 _snoopDogeToken){\r\n        dogeToken = _dogeToken;\r\n        snoopToken = _snoopToken;\r\n        snoopDogeToken = _snoopDogeToken;\r\n        owner = msg.sender;\r\n    }\r\n    \r\n    function stakeTokens(uint _amount) public {\r\n        require(_amount > 0, \"amount cannot be 0\");\r\n        dogeToken.transferFrom(msg.sender, address(this), _amount);\r\n        snoopToken.transferFrom(msg.sender, address(this), _amount);\r\n        snoopDogeToken.transfer(msg.sender, _amount);\r\n        stakingBalance[msg.sender] = stakingBalance[msg.sender] + _amount;\r\n        if(!hasStaked[msg.sender]) {\r\n            stakers.push(msg.sender);\r\n        }\r\n        isStaking[msg.sender] = true;\r\n        hasStaked[msg.sender] = true;\r\n    }\r\n\r\n    function unstakeTokens() public {\r\n        uint balance = stakingBalance[msg.sender];\r\n        require(balance > 0, \"staking balance cannot be 0\");\r\n        dogeToken.transfer(msg.sender, balance);\r\n        snoopToken.transfer(msg.sender, balance);\r\n        snoopDogeToken.transferFrom(msg.sender, address(this), balance);\r\n        stakingBalance[msg.sender] = 0;\r\n        isStaking[msg.sender] = false;\r\n    }\r\n}",
  "sourcePath": "C:/Users/Blackie/DeFi-Application/src/Contracts/SnoopDogeLP.sol",
  "compiler": {
    "name": "solc",
    "version": "0.8.3+commit.8d00100c.Emscripten.clang"
  },
  "schemaVersion": "3.2.3",
  "updatedAt": "2021-03-30T09:21:36.285Z",
  "networkType": "ethereum",
  "devdoc": {
    "kind": "dev",
    "methods": {},
    "version": 1
  },
  "userdoc": {
    "kind": "user",
    "methods": {},
    "version": 1
  }
}