{
  "contractName": "SnoopDogeLP",
  "abi": [
    {
      "inputs": [
        {
          "internalType": "contract Doge",
          "name": "_dogeToken",
          "type": "address"
        },
        {
          "internalType": "contract Snoop",
          "name": "_snoopToken",
          "type": "address"
        },
        {
          "internalType": "contract TokenLP2",
          "name": "_snoopDogeToken",
          "type": "address"
        }
      ],
      "stateMutability": "nonpayable",
      "type": "constructor"
    },
    {
      "inputs": [],
      "name": "dogeToken",
      "outputs": [
        {
          "internalType": "contract Doge",
          "name": "",
          "type": "address"
        }
      ],
      "stateMutability": "view",
      "type": "function",
      "constant": true
    },
    {
      "inputs": [
        {
          "internalType": "address",
          "name": "",
          "type": "address"
        }
      ],
      "name": "hasStaked",
      "outputs": [
        {
          "internalType": "bool",
          "name": "",
          "type": "bool"
        }
      ],
      "stateMutability": "view",
      "type": "function",
      "constant": true
    },
    {
      "inputs": [
        {
          "internalType": "address",
          "name": "",
          "type": "address"
        }
      ],
      "name": "isStaking",
      "outputs": [
        {
          "internalType": "bool",
          "name": "",
          "type": "bool"
        }
      ],
      "stateMutability": "view",
      "type": "function",
      "constant": true
    },
    {
      "inputs": [],
      "name": "owner",
      "outputs": [
        {
          "internalType": "address",
          "name": "",
          "type": "address"
        }
      ],
      "stateMutability": "view",
      "type": "function",
      "constant": true
    },
    {
      "inputs": [],
      "name": "snoopDogeToken",
      "outputs": [
        {
          "internalType": "contract TokenLP2",
          "name": "",
          "type": "address"
        }
      ],
      "stateMutability": "view",
      "type": "function",
      "constant": true
    },
    {
      "inputs": [],
      "name": "snoopToken",
      "outputs": [
        {
          "internalType": "contract Snoop",
          "name": "",
          "type": "address"
        }
      ],
      "stateMutability": "view",
      "type": "function",
      "constant": true
    },
    {
      "inputs": [
        {
          "internalType": "uint256",
          "name": "",
          "type": "uint256"
        }
      ],
      "name": "stakers",
      "outputs": [
        {
          "internalType": "address",
          "name": "",
          "type": "address"
        }
      ],
      "stateMutability": "view",
      "type": "function",
      "constant": true
    },
    {
      "inputs": [
        {
          "internalType": "address",
          "name": "",
          "type": "address"
        }
      ],
      "name": "stakingBalance",
      "outputs": [
        {
          "internalType": "uint256",
          "name": "",
          "type": "uint256"
        }
      ],
      "stateMutability": "view",
      "type": "function",
      "constant": true
    },
    {
      "inputs": [
        {
          "internalType": "uint256",
          "name": "_amount",
          "type": "uint256"
        }
      ],
      "name": "stakeTokens",
      "outputs": [],
      "stateMutability": "nonpayable",
      "type": "function"
    },
    {
      "inputs": [],
      "name": "unstakeTokens",
      "outputs": [],
      "stateMutability": "nonpayable",
      "type": "function"
    }
  ],
  "bytecode": "0x60806040523480156200001157600080fd5b506040516200128338038062001283833981810160405281019062000037919062000188565b82600160006101000a81548173ffffffffffffffffffffffffffffffffffffffff021916908373ffffffffffffffffffffffffffffffffffffffff16021790555081600260006101000a81548173ffffffffffffffffffffffffffffffffffffffff021916908373ffffffffffffffffffffffffffffffffffffffff16021790555080600360006101000a81548173ffffffffffffffffffffffffffffffffffffffff021916908373ffffffffffffffffffffffffffffffffffffffff160217905550336000806101000a81548173ffffffffffffffffffffffffffffffffffffffff021916908373ffffffffffffffffffffffffffffffffffffffff1602179055505050506200029c565b60008151905062000154816200024e565b92915050565b6000815190506200016b8162000268565b92915050565b600081519050620001828162000282565b92915050565b6000806000606084860312156200019e57600080fd5b6000620001ae8682870162000143565b9350506020620001c1868287016200015a565b9250506040620001d48682870162000171565b9150509250925092565b6000620001eb826200022e565b9050919050565b6000620001ff82620001de565b9050919050565b60006200021382620001de565b9050919050565b60006200022782620001de565b9050919050565b600073ffffffffffffffffffffffffffffffffffffffff82169050919050565b6200025981620001f2565b81146200026557600080fd5b50565b620002738162000206565b81146200027f57600080fd5b50565b6200028d816200021a565b81146200029957600080fd5b50565b610fd780620002ac6000396000f3fe608060405234801561001057600080fd5b506004361061009e5760003560e01c8063a5ce413b11610066578063a5ce413b1461015b578063c93c8f3414610165578063d7d91fe314610195578063f74b1961146101b3578063fd5e6dd1146101d15761009e565b806322d31977146100a357806345bc78ab146100c15780636f49712b146100f15780637547c7a3146101215780638da5cb5b1461013d575b600080fd5b6100ab610201565b6040516100b89190610cba565b60405180910390f35b6100db60048036038101906100d69190610b09565b610227565b6040516100e89190610d4b565b60405180910390f35b61010b60048036038101906101069190610b09565b61023f565b6040516101189190610c9f565b60405180910390f35b61013b60048036038101906101369190610b5b565b61025f565b005b6101456106c2565b6040516101529190610c24565b60405180910390f35b6101636106e6565b005b61017f600480360381019061017a9190610b09565b610a1f565b60405161018c9190610c9f565b60405180910390f35b61019d610a3f565b6040516101aa9190610cf0565b60405180910390f35b6101bb610a65565b6040516101c89190610cd5565b60405180910390f35b6101eb60048036038101906101e69190610b5b565b610a8b565b6040516101f89190610c24565b60405180910390f35b600160009054906101000a900473ffffffffffffffffffffffffffffffffffffffff1681565b60056020528060005260406000206000915090505481565b60076020528060005260406000206000915054906101000a900460ff1681565b600081116102a2576040517f08c379a000000000000000000000000000000000000000000000000000000000815260040161029990610d2b565b60405180910390fd5b670de0b6b3a7640000816102b69190610dcd565b9050600160009054906101000a900473ffffffffffffffffffffffffffffffffffffffff1673ffffffffffffffffffffffffffffffffffffffff166323b872dd3330846040518463ffffffff1660e01b815260040161031793929190610c3f565b602060405180830381600087803b15801561033157600080fd5b505af1158015610345573d6000803e3d6000fd5b505050506040513d601f19601f820116820180604052508101906103699190610b32565b50600260009054906101000a900473ffffffffffffffffffffffffffffffffffffffff1673ffffffffffffffffffffffffffffffffffffffff166323b872dd3330846040518463ffffffff1660e01b81526004016103c993929190610c3f565b602060405180830381600087803b1580156103e357600080fd5b505af11580156103f7573d6000803e3d6000fd5b505050506040513d601f19601f8201168201806040525081019061041b9190610b32565b50600360009054906101000a900473ffffffffffffffffffffffffffffffffffffffff1673ffffffffffffffffffffffffffffffffffffffff1663a9059cbb33836040518363ffffffff1660e01b8152600401610479929190610c76565b602060405180830381600087803b15801561049357600080fd5b505af11580156104a7573d6000803e3d6000fd5b505050506040513d601f19601f820116820180604052508101906104cb9190610b32565b5080600560003373ffffffffffffffffffffffffffffffffffffffff1673ffffffffffffffffffffffffffffffffffffffff168152602001908152602001600020546105179190610d77565b600560003373ffffffffffffffffffffffffffffffffffffffff1673ffffffffffffffffffffffffffffffffffffffff16815260200190815260200160002081905550600660003373ffffffffffffffffffffffffffffffffffffffff1673ffffffffffffffffffffffffffffffffffffffff16815260200190815260200160002060009054906101000a900460ff1661060f576004339080600181540180825580915050600190039060005260206000200160009091909190916101000a81548173ffffffffffffffffffffffffffffffffffffffff021916908373ffffffffffffffffffffffffffffffffffffffff1602179055505b6001600760003373ffffffffffffffffffffffffffffffffffffffff1673ffffffffffffffffffffffffffffffffffffffff16815260200190815260200160002060006101000a81548160ff0219169083151502179055506001600660003373ffffffffffffffffffffffffffffffffffffffff1673ffffffffffffffffffffffffffffffffffffffff16815260200190815260200160002060006101000a81548160ff02191690831515021790555050565b60008054906101000a900473ffffffffffffffffffffffffffffffffffffffff1681565b6000600560003373ffffffffffffffffffffffffffffffffffffffff1673ffffffffffffffffffffffffffffffffffffffff1681526020019081526020016000205490506000811161076d576040517f08c379a000000000000000000000000000000000000000000000000000000000815260040161076490610d0b565b60405180910390fd5b600160009054906101000a900473ffffffffffffffffffffffffffffffffffffffff1673ffffffffffffffffffffffffffffffffffffffff1663a9059cbb33836040518363ffffffff1660e01b81526004016107ca929190610c76565b602060405180830381600087803b1580156107e457600080fd5b505af11580156107f8573d6000803e3d6000fd5b505050506040513d601f19601f8201168201806040525081019061081c9190610b32565b50600260009054906101000a900473ffffffffffffffffffffffffffffffffffffffff1673ffffffffffffffffffffffffffffffffffffffff1663a9059cbb33836040518363ffffffff1660e01b815260040161087a929190610c76565b602060405180830381600087803b15801561089457600080fd5b505af11580156108a8573d6000803e3d6000fd5b505050506040513d601f19601f820116820180604052508101906108cc9190610b32565b50600360009054906101000a900473ffffffffffffffffffffffffffffffffffffffff1673ffffffffffffffffffffffffffffffffffffffff166323b872dd3330846040518463ffffffff1660e01b815260040161092c93929190610c3f565b602060405180830381600087803b15801561094657600080fd5b505af115801561095a573d6000803e3d6000fd5b505050506040513d601f19601f8201168201806040525081019061097e9190610b32565b506000600560003373ffffffffffffffffffffffffffffffffffffffff1673ffffffffffffffffffffffffffffffffffffffff168152602001908152602001600020819055506000600760003373ffffffffffffffffffffffffffffffffffffffff1673ffffffffffffffffffffffffffffffffffffffff16815260200190815260200160002060006101000a81548160ff02191690831515021790555050565b60066020528060005260406000206000915054906101000a900460ff1681565b600360009054906101000a900473ffffffffffffffffffffffffffffffffffffffff1681565b600260009054906101000a900473ffffffffffffffffffffffffffffffffffffffff1681565b60048181548110610a9b57600080fd5b906000526020600020016000915054906101000a900473ffffffffffffffffffffffffffffffffffffffff1681565b600081359050610ad981610f5c565b92915050565b600081519050610aee81610f73565b92915050565b600081359050610b0381610f8a565b92915050565b600060208284031215610b1b57600080fd5b6000610b2984828501610aca565b91505092915050565b600060208284031215610b4457600080fd5b6000610b5284828501610adf565b91505092915050565b600060208284031215610b6d57600080fd5b6000610b7b84828501610af4565b91505092915050565b610b8d81610e27565b82525050565b610b9c81610e39565b82525050565b610bab81610e6f565b82525050565b610bba81610e93565b82525050565b610bc981610eb7565b82525050565b6000610bdc601b83610d66565b9150610be782610f0a565b602082019050919050565b6000610bff601283610d66565b9150610c0a82610f33565b602082019050919050565b610c1e81610e65565b82525050565b6000602082019050610c396000830184610b84565b92915050565b6000606082019050610c546000830186610b84565b610c616020830185610b84565b610c6e6040830184610c15565b949350505050565b6000604082019050610c8b6000830185610b84565b610c986020830184610c15565b9392505050565b6000602082019050610cb46000830184610b93565b92915050565b6000602082019050610ccf6000830184610ba2565b92915050565b6000602082019050610cea6000830184610bb1565b92915050565b6000602082019050610d056000830184610bc0565b92915050565b60006020820190508181036000830152610d2481610bcf565b9050919050565b60006020820190508181036000830152610d4481610bf2565b9050919050565b6000602082019050610d606000830184610c15565b92915050565b600082825260208201905092915050565b6000610d8282610e65565b9150610d8d83610e65565b9250827fffffffffffffffffffffffffffffffffffffffffffffffffffffffffffffffff03821115610dc257610dc1610edb565b5b828201905092915050565b6000610dd882610e65565b9150610de383610e65565b9250817fffffffffffffffffffffffffffffffffffffffffffffffffffffffffffffffff0483118215151615610e1c57610e1b610edb565b5b828202905092915050565b6000610e3282610e45565b9050919050565b60008115159050919050565b600073ffffffffffffffffffffffffffffffffffffffff82169050919050565b6000819050919050565b6000610e7a82610e81565b9050919050565b6000610e8c82610e45565b9050919050565b6000610e9e82610ea5565b9050919050565b6000610eb082610e45565b9050919050565b6000610ec282610ec9565b9050919050565b6000610ed482610e45565b9050919050565b7f4e487b7100000000000000000000000000000000000000000000000000000000600052601160045260246000fd5b7f7374616b696e672062616c616e63652063616e6e6f7420626520300000000000600082015250565b7f616d6f756e742063616e6e6f7420626520300000000000000000000000000000600082015250565b610f6581610e27565b8114610f7057600080fd5b50565b610f7c81610e39565b8114610f8757600080fd5b50565b610f9381610e65565b8114610f9e57600080fd5b5056fea2646970667358221220b06f171ebcfdb636ae5cb9f1a6f6581fb43c710bcd4910537aee707d2c87bfb064736f6c63430008030033",
  "immutableReferences": {},
  "source": "// SPDX-License-Identifier: <SPDX-License>\r\npragma solidity ^0.8.2;\r\n\r\nimport './Doge.sol';\r\nimport './Snoop.sol';\r\nimport './TokenLP2.sol';\r\n\r\ncontract SnoopDogeLP{\r\n    address public owner;\r\n    Doge public dogeToken;\r\n    Snoop public snoopToken;\r\n    TokenLP2 public snoopDogeToken;\r\n    address[] public stakers;\r\n    mapping(address => uint) public stakingBalance;\r\n    mapping(address => bool) public hasStaked;\r\n    mapping(address => bool) public isStaking;\r\n    constructor (Doge _dogeToken, Snoop _snoopToken, TokenLP2 _snoopDogeToken){\r\n        dogeToken = _dogeToken;\r\n        snoopToken = _snoopToken;\r\n        snoopDogeToken = _snoopDogeToken;\r\n        owner = msg.sender;\r\n    }\r\n    \r\n    function stakeTokens(uint _amount) public {\r\n        require(_amount > 0, \"amount cannot be 0\");\r\n        _amount = _amount * 1000000000000000000;\r\n        dogeToken.transferFrom(msg.sender, address(this), _amount);\r\n        snoopToken.transferFrom(msg.sender, address(this), _amount);\r\n        snoopDogeToken.transfer(msg.sender, _amount);\r\n        stakingBalance[msg.sender] = stakingBalance[msg.sender] + _amount;\r\n        if(!hasStaked[msg.sender]) {\r\n            stakers.push(msg.sender);\r\n        }\r\n        isStaking[msg.sender] = true;\r\n        hasStaked[msg.sender] = true;\r\n    }\r\n\r\n    function unstakeTokens() public {\r\n        uint balance = stakingBalance[msg.sender];\r\n        require(balance > 0, \"staking balance cannot be 0\");\r\n        dogeToken.transfer(msg.sender, balance);\r\n        snoopToken.transfer(msg.sender, balance);\r\n        snoopDogeToken.transferFrom(msg.sender, address(this), balance);\r\n        stakingBalance[msg.sender] = 0;\r\n        isStaking[msg.sender] = false;\r\n    }\r\n}",
  "sourcePath": "C:/Users/Blackie/DeFi-Application/src/Contracts/SnoopDogeLP.sol",
  "compiler": {
    "name": "solc",
    "version": "0.8.3+commit.8d00100c.Emscripten.clang"
  },
  "schemaVersion": "3.2.3",
  "updatedAt": "2021-03-30T20:40:13.954Z",
  "networkType": "ethereum",
  "devdoc": {
    "kind": "dev",
    "methods": {},
    "version": 1
  },
  "userdoc": {
    "kind": "user",
    "methods": {},
    "version": 1
  }
}